:100000000C942A000C9447000C9447000C94470071
:100010000C9447000C9447000C94D00E0C944700AD
:100020000C9447000C9447000C9447000C94470034
:100030000C9447000C9447000C9447000C94470024
:100040000C9447000C9447000C9447000C94470014
:100050000C94470011241FBECFE5D4E0DEBFCDBF16
:1000600010E0A0E6B0E0ECE7F0E202C005900D92EF
:10007000A837B107D9F710E0A8E7B0E001C01D929A
:10008000A138B107E1F70E94030F0C943C100C94C7
:100090000000EF92FF920F931F937B018C0120E0F1
:1000A00030E040E05FE40E94F50388238CF0C80153
:1000B000B70120E030E040E05FE40E94C1010E940F
:1000C00055049B01AC01205030404040504806C0D0
:1000D000C801B7010E9455049B01AC01B901CA01D6
:1000E0001F910F91FF90EF900895A0E0B0E0EBE733
:1000F000F0E00C94D40FDC012B01FA019C919230BA
:1001000008F439C1EB018881823008F433C194309E
:1001100069F4843009F02FC111969C91119789815F
:10012000981709F428C1A0E7B0E025C1843009F48C
:1001300021C18230A9F4923009F01DC19A01AD01AC
:1001400088E0EA010990AE01E90109929E0181501F
:10015000C1F7E201898111969C918923818308C1AD
:10016000923009F407C112962D903C901397EB0141
:100170008A819B811496AD90BD90CD90DC901797AD
:10018000EC80FD800E811F819101281B390BB90184
:1001900037FF04C066277727621B730B6032710537
:1001A0000CF061C0121613066CF537014801062EDB
:1001B00004C096948794779467940A94D2F721E0C8
:1001C00030E040E050E004C0220F331F441F551FB1
:1001D0006A95D2F721503040404050402E213F21B7
:1001E00040235123211531054105510521F021E01E
:1001F00030E040E050E079018A01E628F72808293C
:1002000019293CC0232BD1F1260E371E350146019A
:10021000062E04C096948794779467940A94D2F734
:1002200021E030E040E050E004C0220F331F441FC3
:10023000551F6A95D2F721503040404050402A2146
:100240003B214C215D21211531054105510521F04E
:1002500021E030E040E050E059016A01A628B728CB
:10026000C828D9280BC0821593052CF01C01AA249C
:10027000BB24650103C0EE24FF24870111969C91E5
:10028000D20111968C91981709F445C0992339F041
:10029000A80197012A193B094C095D0906C0A6016E
:1002A00095012E193F09400B510B57FD08C01182D3
:1002B0003382228224833583468357831DC081E0A5
:1002C00081833382228288279927DC01821B930B4A
:1002D000A40BB50B84839583A683B7830DC0220F2F
:1002E000331F441F551F24833583468357838281E0
:1002F000938101979383828324813581468157813D
:10030000DA01C9010197A109B1098F5F9F4FAF4F72
:10031000BF4328F30BC0918333822282EA0CFB1C7B
:100320000C1D1D1DE482F5820683178383E0808304
:10033000248135814681578157FF1AC0C901AA27F8
:1003400097FDA095BA2F81709070A070B0705695EF
:10035000479537952795822B932BA42BB52B848318
:100360009583A683B7838281938101969383828349
:10037000DF0101C0D201CD01CDB7DEB7E2E10C94BF
:10038000F00FA0E2B0E0E7ECF1E00C94E00F69833D
:100390007A838B839C832D833E834F835887E9E048
:1003A000EE2EF12CEC0EFD1ECE010196B7010E943F
:1003B0007E058E010F5E1F4FCE010596B8010E948B
:1003C0007E058A8991E089278A8BC701B801AE0131
:1003D000475E5F4F0E9475000E94A904A096E6E068
:1003E0000C94FC0FA0E2B0E0E8EFF1E00C94E00F19
:1003F00069837A838B839C832D833E834F835887C5
:10040000F9E0EF2EF12CEC0EFD1ECE010196B701A6
:100410000E947E058E010F5E1F4FCE010596B8012A
:100420000E947E05C701B801AE01475E5F4F0E9482
:1004300075000E94A904A096E6E00C94FC0FA0E2CF
:10044000B0E0E5E2F2E00C94D40F69837A838B8309
:100450009C832D833E834F835887CE010196BE0136
:10046000675F7F4F0E947E05CE010596BE016F5EDD
:100470007F4F0E947E059985923088F0898982306D
:10048000C8F0943019F4823051F404C0843029F457
:10049000923081F480E790E0C6C0923049F420E0C9
:1004A0009A858A89981321E02A87CE010996BBC0D4
:1004B000823049F420E09A858A89981321E02A8BBA
:1004C000CE014196B0C02D843E844F8458886D88FB
:1004D0007E888F88988CEE24FF248701AA24BB2471
:1004E000650140E050E060E070E0E0E0F0E0C10174
:1004F00081709070892BE9F0E60CF71C081D191D1E
:100500009A01AB012A0D3B1D4C1D5D1D80E090E062
:10051000A0E0B0E0E614F7040805190520F481E036
:1005200090E0A0E0B0E0BA01A901480F591F6A1F8E
:100530007B1FAA0CBB1CCC1CDD1C97FE08C081E0F5
:1005400090E0A0E0B0E0A82AB92ACA2ADB2A3196B6
:10055000E032F10549F0660C771C881C991C569412
:10056000479437942794C3CFFA85EA892B893C892D
:100570008B859C85280F391F2E5F3F4F17C0CA01FE
:1005800081709070892B61F016950795F794E79428
:1005900080E090E0A0E0B0E8E82AF92A0A2B1B2BC3
:1005A00076956795579547952F5F3F4F77FDE7CF36
:1005B0000CC0440F551F661F771F17FD4160EE0CDE
:1005C000FF1C001F111F21503040403090E05907A0
:1005D00090E0690790E4790760F32B8F3C8FDB0193
:1005E000CA018F779070A070B07080349105A1051A
:1005F000B10561F447FD0AC0E114F10401051105DC
:1006000029F0405C5F4F6F4F7F4F40781A8EFE1786
:1006100011F081E08A8F4D8F5E8F6F8F78A383E01A
:10062000898FCE0149960E94A904A096E2E10C941C
:10063000F00FA8E1B0E0EFE1F3E00C94DC0F698388
:100640007A838B839C832D833E834F835887B9E0C5
:10065000EB2EF12CEC0EFD1ECE010196B7010E948F
:100660007E058E010F5E1F4FCE010596B8010E94D8
:100670007E052985223008F47EC03989323010F495
:10068000B8017CC08A859A8989278A87243011F02D
:10069000223031F4231709F06EC060E770E06EC0BD
:1006A000343039F41D861E861F86188A1C861B86E8
:1006B00004C0323021F484E08987B7015FC02B8504
:1006C0003C858B899C89281B390B3C872B87ED84C3
:1006D000FE840F851889AD88BE88CF88D88CEA142F
:1006E000FB040C051D0540F4EE0CFF1C001F111F40
:1006F000215030403C872B8720E030E040E050E044
:1007000080E090E0A0E0B0E460E070E0EA14FB0478
:100710000C051D0540F0282B392B4A2B5B2BEA18C2
:10072000FB080C091D09B695A79597958795EE0CC2
:10073000FF1C001F111F6F5F7F4F6F31710531F775
:10074000DA01C9018F779070A070B0708034910584
:10075000A105B10561F427FD0AC0E114F10401050A
:10076000110529F0205C3F4F4F4F5F4F20782D87B8
:100770003E874F87588BBE01675F7F4FCB010E943A
:10078000A9046896EAE00C94F80FA8E1B0E0EBEC5D
:10079000F3E00C94E00F69837A838B839C832D8331
:1007A0003E834F83588789E0E82EF12CEC0EFD1E26
:1007B000CE010196B7010E947E058E010F5E1F4F8C
:1007C000CE010596B8010E947E058985823040F0F1
:1007D0008989823028F0C701B8010E94F60501C05E
:1007E0008FEF6896E6E00C94FC0FA8E1B0E0EBEF29
:1007F000F3E00C94E00F69837A838B839C832D83D1
:100800003E834F83588789E0E82EF12CEC0EFD1EC5
:10081000CE010196B7010E947E058E010F5E1F4F2B
:10082000CE010596B8010E947E058985823040F090
:100830008989823028F0C701B8010E94F60501C0FD
:100840008FEF6896E6E00C94FC0FA8E1B0E0EBE2D5
:10085000F4E00C94E00F69837A838B839C832D836F
:100860003E834F83588789E0E82EF12CEC0EFD1E65
:10087000CE010196B7010E947E058E010F5E1F4FCB
:10088000CE010596B8010E947E058985823040F030
:100890008989823028F0C701B8010E94F60501C09D
:1008A00081E06896E6E00C94FC0FACE0B0E0EBE58C
:1008B000F4E00C94E40F69837A838B839C83CE01EC
:1008C0000196BE016B5F7F4F0E947E058D81823055
:1008D00061F1823050F1843021F48E81882351F10E
:1008E0002EC02F81388537FD20C06E812F31310514
:1008F0001CF06623F9F023C08EE190E0821B930B7D
:1009000029853A854B855C8504C056954795379572
:1009100027958A95D2F76623B1F05095409530958A
:1009200021953F4F4F4F5F4F0EC020E030E040E039
:1009300050E009C02FEF3FEF4FEF5FE704C020E02A
:1009400030E040E050E8B901CA012C96E2E00C9496
:100950000010DF92EF92FF920F931F93FC01E4804F
:10096000F58006811781D1808081823048F480E053
:1009700090E0A0E1B0E0E82AF92A0A2B1B2BA5C0E1
:10098000843009F49FC0823021F4EE24FF248701D3
:1009900005C0E114F1040105110519F4E0E0F0E0EF
:1009A00096C0628173819FEF623879070CF05BC05B
:1009B00022E83FEF261B370B2A3131052CF020E0CF
:1009C00030E040E050E02AC0B801A701022E04C088
:1009D00076956795579547950A94D2F781E090E010
:1009E000A0E0B0E004C0880F991FAA1FBB1F2A9582
:1009F000D2F70197A109B1098E219F21A023B1232C
:100A00000097A105B10521F081E090E0A0E0B0E001
:100A10009A01AB01282B392B4A2B5B2BDA01C90138
:100A20008F779070A070B07080349105A105B105EA
:100A300039F427FF09C0205C3F4F4F4F5F4F04C080
:100A4000215C3F4F4F4F5F4FE0E0F0E02030A0E0EF
:100A50003A07A0E04A07A0E45A0710F0E1E0F0E00E
:100A600079018A0127C06038710564F5FB01E158FE
:100A7000FF4FD801C7018F779070A070B07080349D
:100A80009105A105B10539F4E7FE0DC080E490E0C1
:100A9000A0E0B0E004C08FE390E0A0E0B0E0E80E9A
:100AA000F91E0A1F1B1F17FF05C016950795F7941F
:100AB000E794319687E016950795F794E7948A9521
:100AC000D1F705C0EE24FF248701EFEFF0E06E2F91
:100AD000679566276795902F9F77D794DD24D794E5
:100AE0008E2F8695492F462B582F5D29B701CA01B5
:100AF0001F910F91FF90EF90DF900895FC01DB01B3
:100B0000408151812281622F6F7770E0221F22275E
:100B1000221F9381892F880F822B282F30E0991F65
:100B20009927991F11969C93119721153105A9F5C5
:100B3000411551056105710511F482E037C082E865
:100B40009FEF13969C938E9312979A01AB0167E0E7
:100B5000220F331F441F551F6A95D1F783E08C93F2
:100B60000DC0220F331F441F551F12968D919C916B
:100B70001397019713969C938E931297203080E0E1
:100B8000380780E0480780E4580758F314962D93FF
:100B90003D934D935C93179708952F3F310579F45A
:100BA000411551056105710519F484E08C93089590
:100BB00064FF03C081E08C9312C01C9210C02F57B9
:100BC000304013963C932E93129783E08C9387E0EA
:100BD000440F551F661F771F8A95D1F770641496CE
:100BE0004D935D936D937C93179708951F93DC014C
:100BF000FB019C91923008F447C08081823008F458
:100C000043C0943051F411961C91843099F5818140
:100C1000682F70E0611B71093FC0843021F0923071
:100C200031F48230B9F18181882389F12DC0119688
:100C30001C9111978230F1F081811817D9F4129626
:100C40002D913C911397828193818217930794F0A1
:100C500028173907BCF014968D919D910D90BC9189
:100C6000A02D2481358146815781281739074A07ED
:100C70005B0718F4112341F00AC082179307A407F9
:100C8000B50740F4112319F061E070E005C06FEF83
:100C90007FEF02C060E070E0CB011F910895DF9309
:100CA000CF93CDB7DEB728970FB6F894DEBF0FBE4F
:100CB000CDBF8A836B834C8319828A81843008F08C
:100CC000F5C08B81883008F0F1C08C81882309F051
:100CD00077C08A81282F30E038872F838F819885CD
:100CE0008130910559F12F813885223031052CF45E
:100CF0008F819885009769F060C02F8138852230F8
:100D0000310589F18F8198858330910509F440C0C0
:100D100054C0AAE3B0E0EAE3F0E08081482F8B8181
:100D2000282F30E081E090E0022E02C0880F991F4A
:100D30000A94E2F7809584238C93BAC0A7E3B0E0CD
:100D4000E7E3F0E08081482F8B81282F30E081E0BD
:100D500090E0022E02C0880F991F0A94E2F7809556
:100D600084238C93A5C0A4E3B0E0E4E3F0E08081A9
:100D7000482F8B81282F30E081E090E0022E02C0C6
:100D8000880F991F0A94E2F7809584238C9390C072
:100D9000A1E3B0E0E1E3F0E08081482F8B81282FD0
:100DA00030E081E090E0022E02C0880F991F0A9483
:100DB000E2F7809584238C937BC081E0898378C09F
:100DC0008C81813009F074C08A81282F30E03E8305
:100DD0002D838D819E818130910549F12D813E8148
:100DE000223031052CF48D819E81009761F05BC02B
:100DF0002D813E812230310571F18D819E818330BC
:100E00009105E9F150C0AAE3B0E0EAE3F0E08081A7
:100E1000482F8B81282F30E081E090E0022E02C025
:100E2000880F991F0A94E2F7842B8C9341C0A7E3A3
:100E3000B0E0E7E3F0E08081482F8B81282F30E09D
:100E400081E090E0022E02C0880F991F0A94E2F719
:100E5000842B8C932DC0A4E3B0E0E4E3F0E0808128
:100E6000482F8B81282F30E081E090E0022E02C0D5
:100E7000880F991F0A94E2F7842B8C9319C0A1E381
:100E8000B0E0E1E3F0E08081482F8B81282F30E053
:100E900081E090E0022E02C0880F991F0A94E2F7C9
:100EA000842B8C9305C081E0898302C081E0898313
:100EB000898128960FB6F894DEBF0FBECDBFCF91C3
:100EC000DF910895DF93CF9300D000D00F92CDB77C
:100ED000DEB78A836B8319828A818430B0F58A8178
:100EE000282F30E03D832C838C819D8181309105BA
:100EF000D1F02C813D81223031052CF48C819D81F3
:100F0000009761F01FC02C813D812230310581F0B6
:100F10008C819D818330910581F014C0EAE3F0E07B
:100F20008B81808313C0E7E3F0E08B8180830EC068
:100F3000E4E3F0E08B81808309C0E1E3F0E08B81A2
:100F4000808304C081E0898301C0198289810F9068
:100F50000F900F900F900F90CF91DF910895DF9336
:100F6000CF93CDB7DEB728970FB6F894DEBF0FBE8C
:100F7000CDBF8A836B834C8319828A81843008F0C9
:100F8000F5C08B81883008F0F1C08C81813009F088
:100F900072C08A81282F30E038872F838F8198850F
:100FA0008130910549F12F813885223031052CF4AB
:100FB0008F819885009761F05BC02F813885223042
:100FC000310571F18F81988583309105E9F150C029
:100FD000ABE3B0E0EBE3F0E08081482F8B81282F7A
:100FE00030E081E090E0022E02C0880F991F0A9441
:100FF000E2F7842B8C93BCC0A8E3B0E0E8E3F0E018
:101000008081482F8B81282F30E081E090E0022EF4
:1010100002C0880F991F0A94E2F7842B8C93A8C012
:10102000A5E3B0E0E5E3F0E08081482F8B81282F35
:1010300030E081E090E0022E02C0880F991F0A94F0
:10104000E2F7842B8C9394C0A2E3B0E0E2E3F0E0FB
:101050008081482F8B81282F30E081E090E0022EA4
:1010600002C0880F991F0A94E2F7842B8C9380C0EA
:1010700081E089837DC08C81882309F079C08A81D1
:10108000282F30E03E832D838D819E818130910514
:1010900059F12D813E81223031052CF48D819E81C4
:1010A000009769F060C02D813E812230310589F1C1
:1010B0008D819E818330910509F440C054C0ABE31B
:1010C000B0E0EBE3F0E08081482F8B81282F30E007
:1010D00081E090E0022E02C0880F991F0A94E2F787
:1010E000809584238C9344C0A8E3B0E0E8E3F0E06B
:1010F0008081482F8B81282F30E081E090E0022E04
:1011000002C0880F991F0A94E2F7809584238C937C
:101110002FC0A5E3B0E0E5E3F0E08081482F8B81AC
:10112000282F30E081E090E0022E02C0880F991F46
:101130000A94E2F7809584238C931AC0A2E3B0E06E
:10114000E2E3F0E08081482F8B81282F30E081E0BE
:1011500090E0022E02C0880F991F0A94E2F7809552
:1011600084238C9305C081E0898302C081E0898358
:10117000898128960FB6F894DEBF0FBECDBFCF9100
:10118000DF910895DF93CF9300D000D00F92CDB7B9
:10119000DEB78A836B8319828A818430B0F58A81B5
:1011A000282F30E03D832C838C819D8181309105F7
:1011B000D1F02C813D81223031052CF48C819D8130
:1011C000009761F01FC02C813D812230310581F0F4
:1011D0008C819D818330910581F014C0EBE3F0E0B8
:1011E0008B81808314C0E8E3F0E08B8180830FC0A3
:1011F000E5E3F0E08B8180830AC0E2E3F0E08B81DD
:10120000808305C081E0898302C081E08983898170
:101210000F900F900F900F900F90CF91DF91089546
:10122000DF93CF93CDB7DEB7E8970FB6F894DEBF64
:101230000FBECDBF80E090E0A8E4B2E48DAB9EABE2
:10124000AFABB8AF6DA97EA98FA998AD20E030E013
:101250004AE753E40E941F02DC01CB0189AB9AAB41
:10126000ABABBCAB69A97AA98BA99CA920E030E003
:1012700040E85FE30E94250488232CF481E090E09D
:1012800098AB8FA73FC069A97AA98BA99CA920E038
:101290003FEF4FE757E40E94C50318164CF56DA9C0
:1012A0007EA98FA998AD20E030E040E251E40E9491
:1012B0001F02DC01CB01BC01CD010E944900DC0111
:1012C000CB0198AB8FA70FC089E190E09EA78DA7B7
:1012D0008DA59EA50197F1F79EA78DA78FA598A92B
:1012E000019798AB8FA78FA598A9009769F714C0AD
:1012F00069A97AA98BA99CA90E944900DC01CB01AC
:1013000098AB8FA78FA598A99CA78BA78BA59CA509
:101310000197F1F79CA78BA788E30E94F40A80E06D
:1013200090E0A0E8BFE38FA398A7A9A7BAA76FA1F1
:1013300078A589A59AA520E030E04AE753E40E9409
:101340001F02DC01CB018BA39CA3ADA3BEA36BA1A9
:101350007CA18DA19EA120E030E040E85FE30E94E7
:10136000250488232CF481E090E09AA389A33FC050
:101370006BA17CA18DA19EA120E03FEF4FE757E438
:101380000E94C50318164CF56FA178A589A59AA5EA
:1013900020E030E040E251E40E941F02DC01CB017A
:1013A000BC01CD010E944900DC01CB019AA389A3B5
:1013B0000FC089E190E098A38F8F8F8D98A101973E
:1013C000F1F798A38F8F89A19AA101979AA389A376
:1013D00089A19AA1009769F714C06BA17CA18DA186
:1013E0009EA10E944900DC01CB019AA389A389A197
:1013F0009AA19E8F8D8F8D8D9E8D0197F1F79E8F77
:101400008D8F8CE00E94F40A80E090E0A0E8BFE3BA
:10141000898F9A8FAB8FBC8F698D7A8D8B8D9C8DC8
:1014200020E030E04AE753E40E941F02DC01CB01D8
:101430008D8B9E8BAF8BB88F6D897E898F89988DB0
:1014400020E030E040E85FE30E94250488232CF48C
:1014500081E090E09C8B8B8B3FC06D897E898F896A
:10146000988D20E03FEF4FE757E40E94C503181620
:101470004CF5698D7A8D8B8D9C8D20E030E040E2BB
:1014800051E40E941F02DC01CB01BC01CD010E948E
:101490004900DC01CB019C8B8B8B0FC089E190E074
:1014A0009A8B898B89899A890197F1F79A8B898B15
:1014B0008B899C8901979C8B8B8B8B899C8900974E
:1014C00069F714C06D897E898F89988D0E944900C3
:1014D000DC01CB019C8B8B8B8B899C89988B8F87B4
:1014E0008F8598890197F1F7988B8F8781E00E940B
:1014F000F40A80E090E0A0E0B0E48B879C87AD87A1
:10150000BE876B857C858D859E8520E030E04AE72F
:1015100053E40E941F02DC01CB018F839887A987C7
:10152000BA876F81788589859A8520E030E040E828
:101530005FE30E94250488232CF481E090E09E83E1
:101540008D833FC06F81788589859A8520E03FEF44
:101550004FE757E40E94C50318164CF56B857C8550
:101560008D859E8520E030E040E251E40E941F021C
:10157000DC01CB01BC01CD010E944900DC01CB01A3
:101580009E838D830FC089E190E09C838B838B8148
:101590009C810197F1F79C838B838D819E810197BC
:1015A0009E838D838D819E81009769F714C06F8122
:1015B000788589859A850E944900DC01CB019E834C
:1015C0008D838D819E819A83898389819A810197F8
:1015D000F1F79A838983E8960FB6F894DEBF0FBEC1
:1015E000CDBFCF91DF910895DF93CF93CDB7DEB715
:1015F0002F970FB6F894DEBF0FBECDBF8F8783E065
:1016000060E040E00E94AF0783E062E040E00E94BB
:10161000AF0782E06F850E94C20883E061E041E08D
:101620000E94AF0780E090E0A0E0B0E48B879C8749
:10163000AD87BE876B857C858D859E8520E030E0FB
:101640004AE753E40E941F02DC01CB018F83988795
:10165000A987BA876F81788589859A8520E030E0EF
:1016600040E85FE30E94250488232CF481E090E0A9
:101670009E838D833FC06F81788589859A8520E020
:101680003FEF4FE757E40E94C50318164CF56B85F2
:101690007C858D859E8520E030E040E251E40E940B
:1016A0001F02DC01CB01BC01CD010E944900DC011D
:1016B000CB019E838D830FC089E190E09C838B8357
:1016C0008B819C810197F1F79C838B838D819E8117
:1016D00001979E838D838D819E81009769F714C049
:1016E0006F81788589859A850E944900DC01CB014C
:1016F0009E838D838D819E819A83898389819A813E
:101700000197F1F79A83898383E061E040E00E94CA
:10171000AF072F960FB6F894DEBF0FBECDBFCF91A7
:10172000DF910895DF93CF93CDB7DEB760970FB603
:10173000F894DEBF0FBECDBF988B8F8783E060E04B
:1017400041E00E94AF0783E062E040E00E94AF0703
:101750009F8582E0692F0E94C20883E061E041E03A
:101760000E94AF0780E090E0A0E0B0E48B879C8708
:10177000AD87BE876B857C858D859E8520E030E0BA
:101780004AE753E40E941F02DC01CB018F83988754
:10179000A987BA876F81788589859A8520E030E0AE
:1017A00040E85FE30E94250488232CF481E090E068
:1017B0009E838D833FC06F81788589859A8520E0DF
:1017C0003FEF4FE757E40E94C50318164CF56B85B1
:1017D0007C858D859E8520E030E040E251E40E94CA
:1017E0001F02DC01CB01BC01CD010E944900DC01DC
:1017F000CB019E838D830FC089E190E09C838B8316
:101800008B819C810197F1F79C838B838D819E81D5
:1018100001979E838D838D819E81009769F714C007
:101820006F81788589859A850E944900DC01CB010A
:101830009E838D838D819E819A83898389819A81FC
:101840000197F1F79A83898383E061E040E00E9489
:10185000AF0760960FB6F894DEBF0FBECDBFCF9135
:10186000DF910895DF93CF9300D00F92CDB7DEB70D
:101870009B838A83198210C08981282F30E08A8156
:101880009B81FC01E20FF31F8081882F90E00E9472
:10189000920B89818F5F89838981282F30E08A812B
:1018A0009B81FC01E20FF31F8081882329F70F90B1
:1018B0000F900F90CF91DF910895DF93CF93CDB725
:1018C000DEB781E00E94F40ACF91DF910895DF93A3
:1018D000CF93CDB7DEB766970FB6F894DEBF0FBED5
:1018E000CDBF9E8B8D8B8D899E899E012F5F3F4F33
:1018F000B9014AE050E00E940B10CE0101960E940F
:10190000320C66960FB6F894DEBF0FBECDBFCF91F6
:10191000DF910895DF93CF9300D000D00F92CDB721
:10192000DEB78A836B838A81282F30E03D832C8346
:101930008C819D81009731F02C813D8121303105D2
:1019400021F006C08B81898303C08B81805C8983F1
:10195000898180680E94F40A0F900F900F900F9079
:101960000F90CF91DF910895DF93CF93CDB7DEB77E
:10197000AEE4B0E0EEE4F0E0808182608C93AEE40F
:10198000B0E0EEE4F0E080818B7F8C93AEE4B0E0D9
:10199000EEE4F0E080818E7F8C93AEE4B0E0EEE484
:1019A000F0E08081877F8C93AEE4B0E0EEE4F0E07D
:1019B00080818F7E8C93A9E5B0E0E9E5F0E080813D
:1019C00080628C93ECE4F0E011821082E6E4F0E0B7
:1019D00011821082CF91DF910895DF93CF930F9200
:1019E000CDB7DEB789838981813041F4AEE4B0E0C0
:1019F000EEE4F0E080818F7B8C930AC0898188239C
:101A000039F4AEE4B0E0EEE4F0E0808180648C93E1
:101A10000F90CF91DF910895DF93CF93CDB7DEB7CD
:101A2000E6E4F0E080819181CF91DF910895DF932A
:101A3000CF9300D0CDB7DEB79A83898389819A810D
:101A400090937900809378000F900F90CF91DF9161
:101A50000895DF93CF9300D0CDB7DEB780917C009F
:101A60008230D1F480917A0090917B002AE330E0BB
:101A7000B9010E94C00FCB01019690937E00809324
:101A80007D0010927C0080917D0090917E009A8371
:101A9000898389819A8100C00F900F90CF91DF9147
:101AA0000895DF93CF93CDB7DEB780917C008F5F31
:101AB00080937C0080917C00813039F4ECE4F0E08C
:101AC0001182108281E00E94890E80917C00823018
:101AD00049F40E94B30E90937B0080937A0080E0DB
:101AE0000E94890ECF91DF910895DF93CF93CDB7F8
:101AF000DEB768970FB6F894DEBF0FBECDBF80E0AB
:101B000060E041E00E94AF0780E090E0A0E2B1E435
:101B10008D8B9E8BAF8BB88F6D897E898F89988DC9
:101B20002BEA3AEA4AEA5EE30E941F02DC01CB019B
:101B3000898B9A8BAB8BBC8B69897A898B899C89C1
:101B400020E030E040E85FE30E94250488231CF495
:101B500081E0888B91C069897A898B899C8920E092
:101B600030E04FE753E40E94C50318160CF07BC029
:101B70006D897E898F89988D20E030E04AE754E4B2
:101B80000E941903DC01CB018C879D87AE87BF873C
:101B90006C857D858E859F8520E030E04AE753E4A3
:101BA0000E941F02DC01CB0188879987AA87BB8727
:101BB000688579858A859B8520E030E040E85FE391
:101BC0000E94250488232CF481E090E09F838E837B
:101BD0003FC0688579858A859B8520E03FEF4FE788
:101BE00057E40E94C50318164CF56C857D858E85DB
:101BF0009F8520E030E040E251E40E941F02DC01BA
:101C0000CB01BC01CD010E944900DC01CB019F83C7
:101C10008E830FC089E190E09D838C838C819D81B0
:101C20000197F1F79D838C838E819F8101979F831C
:101C30008E838E819F81009769F724C0688579859E
:101C40008A859B850E944900DC01CB019F838E839E
:101C50008E819F819B838A838A819B810197F1F783
:101C60009B838A830FC069897A898B899C890E94AA
:101C70004900DC01CB01888B8889898389818A9519
:101C8000F1F7898380E060E040E00E94AF0768964A
:101C90000FB6F894DEBF0FBECDBFCF91DF91089590
:101CA000DF93CF93CDB7DEB7AEE4B0E0EEE4F0E083
:101CB000808182608C93AEE4B0E0EEE4F0E080815D
:101CC0008B7F8C93AEE4B0E0EEE4F0E080818E7F19
:101CD0008C93AEE4B0E0EEE4F0E08081877F8C93FB
:101CE000AEE4B0E0EEE4F0E080818F7E8C93A9E575
:101CF000B0E0E9E5F0E0808180628C93ECE4F0E014
:101D000011821082E6E4F0E011821082CF91DF911F
:101D10000895DF93CF9300D00F92CDB7DEB78983BC
:101D20008981282F30E03B832A838A819B81009719
:101D300069F02A813B812130310579F4AEE4B0E0CD
:101D4000EEE4F0E080818F7B8C9307C0AEE4B0E0DE
:101D5000EEE4F0E0808180648C930F900F900F9000
:101D6000CF91DF910895DF93CF93CDB7DEB7E6E44F
:101D7000F0E080819181CF91DF910895DF93CF933F
:101D800000D0CDB7DEB79A83898389819A819093F9
:101D9000800080937F000F900F90CF91DF91089586
:101DA0001F920F920FB60F9211242F933F934F93D0
:101DB0005F936F937F938F939F93AF93BF93EF93B3
:101DC000FF93DF93CF93CDB7DEB780917F009091E3
:101DD0008000009729F0E0917F00F0918000099544
:101DE000CF91DF91FF91EF91BF91AF919F918F9133
:101DF0007F916F915F914F913F912F910F900FBE07
:101E00000F901F901895DF93CF93CDB7DEB76097F3
:101E10000FB6F894DEBF0FBECDBF188A1F8682E0D2
:101E20006FEF0E94620783E061E041E00E944F068D
:101E300083E060E041E00E944F0683E066E040E01E
:101E40000E944F0680E060E041E00E944F06AFE54F
:101E5000B0E0EFE5F0E0808180688C930E94500E46
:101E60000E94100981E59DE00E94BE0E80E00E9464
:101E7000890E0E94750D0E94290D988B8F8780E630
:101E800090E00E94320C8F8598890E94670C8CE646
:101E900090E00E94320C80E090E0AAE7B4E48B87E7
:101EA0009C87AD87BE876B857C858D859E8520E070
:101EB00030E04AE753E40E941F02DC01CB018F832C
:101EC0009887A987BA876F81788589859A8520E068
:101ED00030E040E85FE30E94250488232CF481E091
:101EE00090E09E838D833FC06F81788589859A8538
:101EF00020E03FEF4FE757E40E94C50318164CF56A
:101F00006B857C858D859E8520E030E040E251E444
:101F10000E941F02DC01CB01BC01CD010E944900DF
:101F2000DC01CB019E838D830FC089E190E09C830F
:101F30008B838B819C810197F1F79C838B838D81AF
:101F40009E8101979E838D838D819E81009769F785
:101F500014C06F81788589859A850E944900DC01CB
:101F6000CB019E838D838D819E819A838983898114
:101F70009A810197F1F79A8389830E945D0C79CF4A
:101F8000AA1BBB1B51E107C0AA1FBB1FA617B7079F
:101F900010F0A61BB70B881F991F5A95A9F78095BB
:101FA0009095BC01CD0108952F923F924F925F9280
:101FB0006F927F928F929F92AF92BF92CF92DF9259
:101FC000EF92FF920F931F93CF93DF93CDB7DEB7BE
:101FD000CA1BDB0B0FB6F894DEBF0FBECDBF099452
:101FE0002A88398848885F846E847D848C849B84A9
:101FF000AA84B984C884DF80EE80FD800C811B81B7
:10200000AA81B981CE0FD11D0FB6F894DEBF0FBEE5
:10201000CDBFED010895FB019F01E8944230C4F06B
:102020004532B4F44A3029F497FB1EF4909581951B
:102030009F4F642F77270E94C00F805D8A330CF07A
:10204000895D8193CB010097A1F716F45DE251936E
:102050001082C9010C942C10DC01FC01672F7191D6
:102060007723E1F7329704C07C916D93708362917E
:0C207000AE17BF07C8F30895F894FFCF27
:10207C002044697374616E6365203D0020436D00DC
:08208C0000000000000000004C
:00000001FF
